{"genesis":{"config":{"chainId":63,"homesteadBlock":0,"daoForkSupport":true,"eip150Block":0,"eip155Block":0,"eip158Block":0,"byzantiumBlock":0,"constantinopleBlock":301243,"petersburgBlock":999983,"istanbulBlock":999983,"ethash":{}},"nonce":"0x4b281be9594e3eb3","timestamp":"0x5e07a12a","extraData":"0xd883010906846765746888676f312e31332e35856c696e7578","gasLimit":"0x127d7c2","difficulty":"0x1d6654","mixHash":"0xdb4ec386166d9c0dc9ba147755ecbb87af9f0a22563cbda02c799efa4e29db6e","coinbase":"0x0000000000000000000000000000000000000000","alloc":{"6ab9dd83108698b9ca8d03af3c7eb91c0e54c3fc":{"balance":"0x0"},"877bd459c9b7d8576b44e59e09d076c25946f443":{"balance":"0xcbd5b9b25d1c38c2aad","nonce":"0x20f39"},"91765918420bcb5ad22ee0997abed04056705798":{"code":"0x366000803760206000366000736ab9dd83108698b9ca8d03af3c7eb91c0e54c3fc60325a03f41560015760206000f3","balance":"0x0","nonce":"0x1"}},"number":"0x8a352","gasUsed":"0x0","parentHash":"0x0000000000000000000000000000000000000000000000000000000000000000","baseFeePerGas":null,"excessBlobGas":null,"blobGasUsed":null},"context":{"number":"0x8a353","difficulty":"0x1d6a00","timestamp":"0x5e07a12d","gasLimit":"0x1278dce","miner":"0x774c398d763161f55b66a646f17edda4addad2ca"},"input":"0xf87983020f3985746a52880083015f909491765918420bcb5ad22ee0997abed04056705798888ac7230489e80000884e45375a4741394181a1a04b7260723fd02830754916b3bdf1537b6a851a7ae27c7e9296cfe1fc8275ec08a049d32158988eb717d61b4503b27c7583037c067daba1eb56f4bdfafc1b0045f6","tracerConfig":null,"result":[{"action":{"author":"0x0000000000000000000000000000000000000000","address":"0x0000000000000000000000000000000000000000","balance":"0x0","callType":"call","from":"0x877bd459c9b7d8576b44e59e09d076c25946f443","gas":"0x15f90","input":"0x4e45375a47413941","refundAddress":"0x0000000000000000000000000000000000000000","to":"0x91765918420bcb5ad22ee0997abed04056705798","value":"0x8ac7230489e80000"},"result":{"address":"0x0000000000000000000000000000000000000000","gasUsed":"0x5721","output":"0x4e45375a47413941000000000000000000000000000000000000000000000000"},"subtraces":1,"traceAddress":[],"type":"call"},{"action":{"author":"0x0000000000000000000000000000000000000000","address":"0x0000000000000000000000000000000000000000","balance":"0x0","callType":"delegatecall","from":"0x91765918420bcb5ad22ee0997abed04056705798","gas":"0x10463","input":"0x4e45375a47413941","refundAddress":"0x0000000000000000000000000000000000000000","to":"0x6ab9dd83108698b9ca8d03af3c7eb91c0e54c3fc","value":"0x8ac7230489e80000"},"result":{"address":"0x0000000000000000000000000000000000000000"},"subtraces":0,"traceAddress":[0],"type":"call"}]}