{"genesis":{"config":{"chainId":63,"homesteadBlock":0,"daoForkSupport":true,"eip150Block":0,"eip155Block":0,"eip158Block":0,"byzantiumBlock":0,"constantinopleBlock":301243,"petersburgBlock":999983,"istanbulBlock":999983,"ethash":{}},"nonce":"0x40b1bbcc25ddb804","timestamp":"0x5e3ee1ef","extraData":"0x","gasLimit":"0x799813","difficulty":"0x3183bf","mixHash":"0xc8dec711fd1e03972b6a279a09dc0cd29c5171b60f42c4ce37c7c51ff445f776","coinbase":"0x0000000000000000000000000000000000000000","alloc":{"76554b33410b6d90b7dc889bfed0451ad195f27e":{"code":"0x6080604052348015600f57600080fd5b506004361060505760003560e01c8063391521f414605557806355313dea14605d5780636d3d14161460655780638da5cb5b14606d578063b9d1e5aa1460b5575b600080fd5b605b60bd565b005b606360c8565b005b606b60ca565b005b607360cf565b604051808273ffffffffffffffffffffffffffffffffffffffff1673ffffffffffffffffffffffffffffffffffffffff16815260200191505060405180910390f35b60bb60f4565b005b6020610123600af050565b005b600080fd5b6000809054906101000a900473ffffffffffffffffffffffffffffffffffffffff1681565bfefea165627a7a723058202094d5aa5dbbd493e9a2c64c50b62eba4b109b2a12d2bb73a5d0d54982651fc80029","balance":"0x0","nonce":"0x1"},"a3b31cbd5168d3c99756660d4b7625d679e12573":{"balance":"0x569bc6535d3083fce","nonce":"0x1a"},"ed69ab7145a9bae7152406d062c077c6ecc6ae18":{"balance":"0x0"}},"number":"0xcce4e","gasUsed":"0x0","parentHash":"0x0000000000000000000000000000000000000000000000000000000000000000","baseFeePerGas":null,"excessBlobGas":null,"blobGasUsed":null},"context":{"number":"0xcce4f","difficulty":"0x3107ff","timestamp":"0x5e3ee2b3","gasLimit":"0x7979ae","miner":"0x9f2659ffe7b3b467e46dcec3623392cf51635079"},"input":"0xf86a1a8509502f9000830334509476554b33410b6d90b7dc889bfed0451ad195f27e8084391521f481a2a02e4ff0d171a860c8c7de2283978e2f225f9ba3ed4dec446b773c6b2d73ef22dea02a6a517528b491cb71b204f534db11a1c8059035f54d5bae347d1cab536bde2c","tracerConfig":null,"result":[{"action":{"author":"0x0000000000000000000000000000000000000000","address":"0x0000000000000000000000000000000000000000","balance":"0x0","callType":"call","from":"0xa3b31cbd5168d3c99756660d4b7625d679e12573","gas":"0x33450","input":"0x391521f4","refundAddress":"0x0000000000000000000000000000000000000000","to":"0x76554b33410b6d90b7dc889bfed0451ad195f27e","value":"0x0"},"result":{"address":"0x0000000000000000000000000000000000000000","gasUsed":"0xd0b5"},"subtraces":1,"traceAddress":[],"type":"call"},{"action":{"author":"0x0000000000000000000000000000000000000000","address":"0x0000000000000000000000000000000000000000","balance":"0x0","from":"0x76554b33410b6d90b7dc889bfed0451ad195f27e","gas":"0x25a18","refundAddress":"0x0000000000000000000000000000000000000000","to":"0x0000000000000000000000000000000000000000","value":"0x0"},"result":{"address":"0x44e6125d4cad89d331afa3b491ce39d1ebafbeee"},"subtraces":0,"traceAddress":[0],"type":"create"}]}